{
  "_format": "hh-sol-artifact-1",
  "contractName": "StakedToken",
  "sourceName": "contracts/stake/StakedToken.sol",
  "abi": [
    {
      "inputs": [
        {
          "internalType": "contract IERC20",
          "name": "stakedToken",
          "type": "address"
        },
        {
          "internalType": "contract IERC20",
          "name": "rewardToken",
          "type": "address"
        },
        {
          "internalType": "uint256",
          "name": "cooldownSeconds",
          "type": "uint256"
        },
        {
          "internalType": "uint256",
          "name": "unstakeWindow",
          "type": "uint256"
        },
        {
          "internalType": "address",
          "name": "rewardsVault",
          "type": "address"
        },
        {
          "internalType": "address",
          "name": "emissionManager",
          "type": "address"
        },
        {
          "internalType": "uint128",
          "name": "distributionDuration",
          "type": "uint128"
        },
        {
          "internalType": "string",
          "name": "name",
          "type": "string"
        },
        {
          "internalType": "string",
          "name": "symbol",
          "type": "string"
        },
        {
          "internalType": "uint8",
          "name": "decimals",
          "type": "uint8"
        }
      ],
      "stateMutability": "nonpayable",
      "type": "constructor"
    },
    {
      "anonymous": false,
      "inputs": [
        {
          "indexed": true,
          "internalType": "address",
          "name": "owner",
          "type": "address"
        },
        {
          "indexed": true,
          "internalType": "address",
          "name": "spender",
          "type": "address"
        },
        {
          "indexed": false,
          "internalType": "uint256",
          "name": "value",
          "type": "uint256"
        }
      ],
      "name": "Approval",
      "type": "event"
    },
    {
      "anonymous": false,
      "inputs": [
        {
          "indexed": true,
          "internalType": "address",
          "name": "asset",
          "type": "address"
        },
        {
          "indexed": false,
          "internalType": "uint256",
          "name": "emission",
          "type": "uint256"
        }
      ],
      "name": "AssetConfigUpdated",
      "type": "event"
    },
    {
      "anonymous": false,
      "inputs": [
        {
          "indexed": true,
          "internalType": "address",
          "name": "asset",
          "type": "address"
        },
        {
          "indexed": false,
          "internalType": "uint256",
          "name": "index",
          "type": "uint256"
        }
      ],
      "name": "AssetIndexUpdated",
      "type": "event"
    },
    {
      "anonymous": false,
      "inputs": [
        {
          "indexed": true,
          "internalType": "address",
          "name": "user",
          "type": "address"
        }
      ],
      "name": "Cooldown",
      "type": "event"
    },
    {
      "anonymous": false,
      "inputs": [
        {
          "indexed": true,
          "internalType": "address",
          "name": "from",
          "type": "address"
        },
        {
          "indexed": true,
          "internalType": "address",
          "name": "to",
          "type": "address"
        },
        {
          "indexed": false,
          "internalType": "uint256",
          "name": "amount",
          "type": "uint256"
        }
      ],
      "name": "Redeem",
      "type": "event"
    },
    {
      "anonymous": false,
      "inputs": [
        {
          "indexed": false,
          "internalType": "address",
          "name": "user",
          "type": "address"
        },
        {
          "indexed": false,
          "internalType": "uint256",
          "name": "amount",
          "type": "uint256"
        }
      ],
      "name": "RewardsAccrued",
      "type": "event"
    },
    {
      "anonymous": false,
      "inputs": [
        {
          "indexed": true,
          "internalType": "address",
          "name": "from",
          "type": "address"
        },
        {
          "indexed": true,
          "internalType": "address",
          "name": "to",
          "type": "address"
        },
        {
          "indexed": false,
          "internalType": "uint256",
          "name": "amount",
          "type": "uint256"
        }
      ],
      "name": "RewardsClaimed",
      "type": "event"
    },
    {
      "anonymous": false,
      "inputs": [
        {
          "indexed": false,
          "internalType": "address",
          "name": "owner",
          "type": "address"
        },
        {
          "indexed": false,
          "internalType": "uint128",
          "name": "oldValue",
          "type": "uint128"
        },
        {
          "indexed": false,
          "internalType": "uint128",
          "name": "newValue",
          "type": "uint128"
        }
      ],
      "name": "SnapshotDone",
      "type": "event"
    },
    {
      "anonymous": false,
      "inputs": [
        {
          "indexed": true,
          "internalType": "address",
          "name": "from",
          "type": "address"
        },
        {
          "indexed": true,
          "internalType": "address",
          "name": "onBehalfOf",
          "type": "address"
        },
        {
          "indexed": false,
          "internalType": "uint256",
          "name": "amount",
          "type": "uint256"
        }
      ],
      "name": "Staked",
      "type": "event"
    },
    {
      "anonymous": false,
      "inputs": [
        {
          "indexed": true,
          "internalType": "address",
          "name": "from",
          "type": "address"
        },
        {
          "indexed": true,
          "internalType": "address",
          "name": "to",
          "type": "address"
        },
        {
          "indexed": false,
          "internalType": "uint256",
          "name": "value",
          "type": "uint256"
        }
      ],
      "name": "Transfer",
      "type": "event"
    },
    {
      "anonymous": false,
      "inputs": [
        {
          "indexed": true,
          "internalType": "address",
          "name": "user",
          "type": "address"
        },
        {
          "indexed": true,
          "internalType": "address",
          "name": "asset",
          "type": "address"
        },
        {
          "indexed": false,
          "internalType": "uint256",
          "name": "index",
          "type": "uint256"
        }
      ],
      "name": "UserIndexUpdated",
      "type": "event"
    },
    {
      "inputs": [],
      "name": "COOLDOWN_SECONDS",
      "outputs": [
        {
          "internalType": "uint256",
          "name": "",
          "type": "uint256"
        }
      ],
      "stateMutability": "view",
      "type": "function"
    },
    {
      "inputs": [],
      "name": "DISTRIBUTION_END",
      "outputs": [
        {
          "internalType": "uint256",
          "name": "",
          "type": "uint256"
        }
      ],
      "stateMutability": "view",
      "type": "function"
    },
    {
      "inputs": [],
      "name": "EMISSION_MANAGER",
      "outputs": [
        {
          "internalType": "address",
          "name": "",
          "type": "address"
        }
      ],
      "stateMutability": "view",
      "type": "function"
    },
    {
      "inputs": [],
      "name": "PRECISION",
      "outputs": [
        {
          "internalType": "uint8",
          "name": "",
          "type": "uint8"
        }
      ],
      "stateMutability": "view",
      "type": "function"
    },
    {
      "inputs": [],
      "name": "REVISION",
      "outputs": [
        {
          "internalType": "uint256",
          "name": "",
          "type": "uint256"
        }
      ],
      "stateMutability": "view",
      "type": "function"
    },
    {
      "inputs": [],
      "name": "REWARDS_VAULT",
      "outputs": [
        {
          "internalType": "address",
          "name": "",
          "type": "address"
        }
      ],
      "stateMutability": "view",
      "type": "function"
    },
    {
      "inputs": [],
      "name": "REWARD_TOKEN",
      "outputs": [
        {
          "internalType": "contract IERC20",
          "name": "",
          "type": "address"
        }
      ],
      "stateMutability": "view",
      "type": "function"
    },
    {
      "inputs": [],
      "name": "STAKED_TOKEN",
      "outputs": [
        {
          "internalType": "contract IERC20",
          "name": "",
          "type": "address"
        }
      ],
      "stateMutability": "view",
      "type": "function"
    },
    {
      "inputs": [],
      "name": "UNSTAKE_WINDOW",
      "outputs": [
        {
          "internalType": "uint256",
          "name": "",
          "type": "uint256"
        }
      ],
      "stateMutability": "view",
      "type": "function"
    },
    {
      "inputs": [],
      "name": "_aaveGovernance",
      "outputs": [
        {
          "internalType": "contract ITransferHook",
          "name": "",
          "type": "address"
        }
      ],
      "stateMutability": "view",
      "type": "function"
    },
    {
      "inputs": [
        {
          "internalType": "address",
          "name": "",
          "type": "address"
        }
      ],
      "name": "_countsSnapshots",
      "outputs": [
        {
          "internalType": "uint256",
          "name": "",
          "type": "uint256"
        }
      ],
      "stateMutability": "view",
      "type": "function"
    },
    {
      "inputs": [
        {
          "internalType": "address",
          "name": "",
          "type": "address"
        },
        {
          "internalType": "uint256",
          "name": "",
          "type": "uint256"
        }
      ],
      "name": "_snapshots",
      "outputs": [
        {
          "internalType": "uint128",
          "name": "blockNumber",
          "type": "uint128"
        },
        {
          "internalType": "uint128",
          "name": "value",
          "type": "uint128"
        }
      ],
      "stateMutability": "view",
      "type": "function"
    },
    {
      "inputs": [
        {
          "internalType": "address",
          "name": "owner",
          "type": "address"
        },
        {
          "internalType": "address",
          "name": "spender",
          "type": "address"
        }
      ],
      "name": "allowance",
      "outputs": [
        {
          "internalType": "uint256",
          "name": "",
          "type": "uint256"
        }
      ],
      "stateMutability": "view",
      "type": "function"
    },
    {
      "inputs": [
        {
          "internalType": "address",
          "name": "spender",
          "type": "address"
        },
        {
          "internalType": "uint256",
          "name": "amount",
          "type": "uint256"
        }
      ],
      "name": "approve",
      "outputs": [
        {
          "internalType": "bool",
          "name": "",
          "type": "bool"
        }
      ],
      "stateMutability": "nonpayable",
      "type": "function"
    },
    {
      "inputs": [
        {
          "internalType": "address",
          "name": "",
          "type": "address"
        }
      ],
      "name": "assets",
      "outputs": [
        {
          "internalType": "uint128",
          "name": "emissionPerSecond",
          "type": "uint128"
        },
        {
          "internalType": "uint128",
          "name": "lastUpdateTimestamp",
          "type": "uint128"
        },
        {
          "internalType": "uint256",
          "name": "index",
          "type": "uint256"
        }
      ],
      "stateMutability": "view",
      "type": "function"
    },
    {
      "inputs": [
        {
          "internalType": "address",
          "name": "account",
          "type": "address"
        }
      ],
      "name": "balanceOf",
      "outputs": [
        {
          "internalType": "uint256",
          "name": "",
          "type": "uint256"
        }
      ],
      "stateMutability": "view",
      "type": "function"
    },
    {
      "inputs": [
        {
          "internalType": "address",
          "name": "to",
          "type": "address"
        },
        {
          "internalType": "uint256",
          "name": "amount",
          "type": "uint256"
        }
      ],
      "name": "claimRewards",
      "outputs": [],
      "stateMutability": "nonpayable",
      "type": "function"
    },
    {
      "inputs": [
        {
          "components": [
            {
              "internalType": "uint128",
              "name": "emissionPerSecond",
              "type": "uint128"
            },
            {
              "internalType": "uint256",
              "name": "totalStaked",
              "type": "uint256"
            },
            {
              "internalType": "address",
              "name": "underlyingAsset",
              "type": "address"
            }
          ],
          "internalType": "struct DistributionTypes.AssetConfigInput[]",
          "name": "assetsConfigInput",
          "type": "tuple[]"
        }
      ],
      "name": "configureAssets",
      "outputs": [],
      "stateMutability": "nonpayable",
      "type": "function"
    },
    {
      "inputs": [],
      "name": "cooldown",
      "outputs": [],
      "stateMutability": "nonpayable",
      "type": "function"
    },
    {
      "inputs": [],
      "name": "decimals",
      "outputs": [
        {
          "internalType": "uint8",
          "name": "",
          "type": "uint8"
        }
      ],
      "stateMutability": "view",
      "type": "function"
    },
    {
      "inputs": [
        {
          "internalType": "address",
          "name": "spender",
          "type": "address"
        },
        {
          "internalType": "uint256",
          "name": "subtractedValue",
          "type": "uint256"
        }
      ],
      "name": "decreaseAllowance",
      "outputs": [
        {
          "internalType": "bool",
          "name": "",
          "type": "bool"
        }
      ],
      "stateMutability": "nonpayable",
      "type": "function"
    },
    {
      "inputs": [
        {
          "internalType": "uint256",
          "name": "fromCooldownTimestamp",
          "type": "uint256"
        },
        {
          "internalType": "uint256",
          "name": "amountToReceive",
          "type": "uint256"
        },
        {
          "internalType": "address",
          "name": "toAddress",
          "type": "address"
        },
        {
          "internalType": "uint256",
          "name": "toBalance",
          "type": "uint256"
        }
      ],
      "name": "getNextCooldownTimestamp",
      "outputs": [
        {
          "internalType": "uint256",
          "name": "",
          "type": "uint256"
        }
      ],
      "stateMutability": "nonpayable",
      "type": "function"
    },
    {
      "inputs": [
        {
          "internalType": "address",
          "name": "staker",
          "type": "address"
        }
      ],
      "name": "getTotalRewardsBalance",
      "outputs": [
        {
          "internalType": "uint256",
          "name": "",
          "type": "uint256"
        }
      ],
      "stateMutability": "view",
      "type": "function"
    },
    {
      "inputs": [
        {
          "internalType": "address",
          "name": "user",
          "type": "address"
        },
        {
          "internalType": "address",
          "name": "asset",
          "type": "address"
        }
      ],
      "name": "getUserAssetData",
      "outputs": [
        {
          "internalType": "uint256",
          "name": "",
          "type": "uint256"
        }
      ],
      "stateMutability": "view",
      "type": "function"
    },
    {
      "inputs": [
        {
          "internalType": "address",
          "name": "spender",
          "type": "address"
        },
        {
          "internalType": "uint256",
          "name": "addedValue",
          "type": "uint256"
        }
      ],
      "name": "increaseAllowance",
      "outputs": [
        {
          "internalType": "bool",
          "name": "",
          "type": "bool"
        }
      ],
      "stateMutability": "nonpayable",
      "type": "function"
    },
    {
      "inputs": [
        {
          "internalType": "contract ITransferHook",
          "name": "aaveGovernance",
          "type": "address"
        },
        {
          "internalType": "string",
          "name": "name",
          "type": "string"
        },
        {
          "internalType": "string",
          "name": "symbol",
          "type": "string"
        },
        {
          "internalType": "uint8",
          "name": "decimals",
          "type": "uint8"
        }
      ],
      "name": "initialize",
      "outputs": [],
      "stateMutability": "nonpayable",
      "type": "function"
    },
    {
      "inputs": [],
      "name": "name",
      "outputs": [
        {
          "internalType": "string",
          "name": "",
          "type": "string"
        }
      ],
      "stateMutability": "view",
      "type": "function"
    },
    {
      "inputs": [
        {
          "internalType": "address",
          "name": "to",
          "type": "address"
        },
        {
          "internalType": "uint256",
          "name": "amount",
          "type": "uint256"
        }
      ],
      "name": "redeem",
      "outputs": [],
      "stateMutability": "nonpayable",
      "type": "function"
    },
    {
      "inputs": [
        {
          "internalType": "address",
          "name": "onBehalfOf",
          "type": "address"
        },
        {
          "internalType": "uint256",
          "name": "amount",
          "type": "uint256"
        }
      ],
      "name": "stake",
      "outputs": [],
      "stateMutability": "nonpayable",
      "type": "function"
    },
    {
      "inputs": [
        {
          "internalType": "address",
          "name": "",
          "type": "address"
        }
      ],
      "name": "stakerRewardsToClaim",
      "outputs": [
        {
          "internalType": "uint256",
          "name": "",
          "type": "uint256"
        }
      ],
      "stateMutability": "view",
      "type": "function"
    },
    {
      "inputs": [
        {
          "internalType": "address",
          "name": "",
          "type": "address"
        }
      ],
      "name": "stakersCooldowns",
      "outputs": [
        {
          "internalType": "uint256",
          "name": "",
          "type": "uint256"
        }
      ],
      "stateMutability": "view",
      "type": "function"
    },
    {
      "inputs": [],
      "name": "symbol",
      "outputs": [
        {
          "internalType": "string",
          "name": "",
          "type": "string"
        }
      ],
      "stateMutability": "view",
      "type": "function"
    },
    {
      "inputs": [],
      "name": "totalSupply",
      "outputs": [
        {
          "internalType": "uint256",
          "name": "",
          "type": "uint256"
        }
      ],
      "stateMutability": "view",
      "type": "function"
    },
    {
      "inputs": [
        {
          "internalType": "address",
          "name": "recipient",
          "type": "address"
        },
        {
          "internalType": "uint256",
          "name": "amount",
          "type": "uint256"
        }
      ],
      "name": "transfer",
      "outputs": [
        {
          "internalType": "bool",
          "name": "",
          "type": "bool"
        }
      ],
      "stateMutability": "nonpayable",
      "type": "function"
    },
    {
      "inputs": [
        {
          "internalType": "address",
          "name": "sender",
          "type": "address"
        },
        {
          "internalType": "address",
          "name": "recipient",
          "type": "address"
        },
        {
          "internalType": "uint256",
          "name": "amount",
          "type": "uint256"
        }
      ],
      "name": "transferFrom",
      "outputs": [
        {
          "internalType": "bool",
          "name": "",
          "type": "bool"
        }
      ],
      "stateMutability": "nonpayable",
      "type": "function"
    }
  ],
  "bytecode": "0x61016060405260006009553480156200001757600080fd5b5060405162002ec938038062002ec98339810160408190526200003a91620002f7565b84846001600160801b031684848482828282600390805190602001906200006392919062000161565b5081516200007990600490602085019062000161565b5080600560006101000a81548160ff021916908360ff160217905550505050505050620000b58142620000ff60201b620012141790919060201c565b608052506001600160601b0319606091821b811660a0529a811b8b1660c05298891b8a1660e05250505061010094909452506101209190915290911b9091166101405250620003e4565b6000828201838110156200015a576040805162461bcd60e51b815260206004820152601b60248201527f536166654d6174683a206164646974696f6e206f766572666c6f770000000000604482015290519081900360640190fd5b9392505050565b828054600181600116156101000203166002900490600052602060002090601f016020900481019282620001995760008555620001e4565b82601f10620001b457805160ff1916838001178555620001e4565b82800160010185558215620001e4579182015b82811115620001e4578251825591602001919060010190620001c7565b50620001f2929150620001f6565b5090565b5b80821115620001f25760008155600101620001f7565b80516001600160a01b03811681146200022557600080fd5b919050565b600082601f8301126200023b578081fd5b81516001600160401b03808211156200025057fe5b6040516020601f8401601f19168201810183811183821017156200027057fe5b806040525081945083825286818588010111156200028d57600080fd5b600092505b83831015620002b1578583018101518284018201529182019162000292565b83831115620002c35760008185840101525b5050505092915050565b80516001600160801b03811681146200022557600080fd5b805160ff811681146200022557600080fd5b6000806000806000806000806000806101408b8d03121562000317578586fd5b620003228b6200020d565b99506200033260208c016200020d565b985060408b0151975060608b015196506200035060808c016200020d565b95506200036060a08c016200020d565b94506200037060c08c01620002cd565b60e08c01519094506001600160401b03808211156200038d578485fd5b6200039b8e838f016200022a565b94506101008d0151915080821115620003b2578384fd5b50620003c18d828e016200022a565b925050620003d36101208c01620002e5565b90509295989b9194979a5092959850565b60805160a05160601c60c05160601c60e05160601c61010051610120516101405160601c612a446200048560003980610a2b5280610b795250806105bf5280610824528061104952508061057b52806105e752806108b1528061106e525080610ab05280610b4f52508061069352806107c75280610d6b525080610de15280610f9a525080610a075280612000528061203c52806120695250612a446000f3fe608060405234801561001057600080fd5b50600436106102115760003560e01c80638dbefee211610125578063adc9772e116100ad578063dd62ed3e1161007c578063dd62ed3e14610410578063dde43cba14610423578063f11b81881461042b578063f1cc432a1461044d578063f6d2ee861461046057610211565b8063adc9772e146103da578063b2a5dbfa146103ed578063c3863ada14610400578063cbcbb5071461040857610211565b806399248ea7116100f457806399248ea7146103915780639a99b4f014610399578063a457c2d7146103ac578063a9059cbb146103bf578063aaf5eb68146103d257610211565b80638dbefee214610366578063919cd40f14610379578063946776cd1461038157806395d89b411461038957610211565b8063313ce567116101a857806370a082311161017757806370a082311461031d57806372b49d6314610330578063787a08a6146103385780637e90d7ef146103405780638779588c1461035357610211565b8063313ce567146102da5780633373ee4c146102ef578063359c4a9614610302578063395093511461030a57610211565b80631e9a6950116101e45780631e9a69501461027c57806323b872dd146102915780632acbf823146102a4578063312f6b83146102c557610211565b806306fdde0314610216578063091030c314610234578063095ea7b31461025457806318160ddd14610274575b600080fd5b61021e610473565b60405161022b9190612684565b60405180910390f35b610247610242366004612421565b610509565b60405161022b9190612822565b6102676102623660046124b5565b61051b565b60405161022b9190612679565b610247610539565b61028f61028a3660046124b5565b61053f565b005b61026761029f366004612475565b61070c565b6102b76102b23660046124b5565b610794565b60405161022b9291906127e4565b6102cd6107c5565b60405161022b919061264c565b6102e26107e9565b60405161022b919061282b565b6102476102fd36600461243d565b6107f2565b610247610822565b6102676103183660046124b5565b610846565b61024761032b366004612421565b610894565b6102476108af565b61028f6108d3565b61024761034e366004612421565b610932565b610247610361366004612421565b610944565b610247610374366004612421565b610956565b610247610a05565b6102cd610a29565b61021e610a4d565b6102cd610aae565b61028f6103a73660046124b5565b610ad2565b6102676103ba3660046124b5565b610bf0565b6102676103cd3660046124b5565b610c58565b6102e2610c6c565b61028f6103e83660046124b5565b610c71565b61028f6103fb3660046124e0565b610dd6565b6102cd610f89565b6102cd610f98565b61024761041e36600461243d565b610fbc565b610247610fe7565b61043e610439366004612421565b610fec565b60405161022b939291906127fe565b61024761045b36600461260e565b61101a565b61028f61046e366004612550565b61112c565b60038054604080516020601f60026000196101006001881615020190951694909404938401819004810282018101909252828152606093909290918301828280156104ff5780601f106104d4576101008083540402835291602001916104ff565b820191906000526020600020905b8154815290600101906020018083116104e257829003601f168201915b5050505050905090565b603e6020526000908152604090205481565b600061052f61052861126e565b8484611272565b5060015b92915050565b60025490565b806105655760405162461bcd60e51b815260040161055c906126d7565b60405180910390fd5b336000908152603e602052604090205461059f817f0000000000000000000000000000000000000000000000000000000000000000611214565b42116105bd5760405162461bcd60e51b815260040161055c90612704565b7f000000000000000000000000000000000000000000000000000000000000000061061261060b837f0000000000000000000000000000000000000000000000000000000000000000611214565b429061135e565b11156106305760405162461bcd60e51b815260040161055c90612762565b600061063b33610894565b9050600081841161064c578361064e565b815b905061065c338360016113a0565b506106673382611445565b610671828261135e565b61068657336000908152603e60205260408120555b6106ba6001600160a01b037f0000000000000000000000000000000000000000000000000000000000000000168683611541565b846001600160a01b0316336001600160a01b03167fd12200efa34901b99367694174c3b0d32c99585fdf37c7c26892136ddd0836d9836040516106fd9190612822565b60405180910390a35050505050565b6000610719848484611593565b6107898461072561126e565b61078485604051806060016040528060288152602001612900602891396001600160a01b038a1660009081526001602052604081209061076361126e565b6001600160a01b03168152602081019190915260400160002054919061165f565b611272565b5060015b9392505050565b60066020908152600092835260408084209091529082529020546001600160801b0380821691600160801b90041682565b7f000000000000000000000000000000000000000000000000000000000000000081565b60055460ff1690565b6001600160a01b038082166000908152603c60209081526040808320938616835260029093019052205492915050565b7f000000000000000000000000000000000000000000000000000000000000000081565b600061052f61085361126e565b84610784856001600061086461126e565b6001600160a01b03908116825260208083019390935260409182016000908120918c168152925290205490611214565b6001600160a01b031660009081526020819052604090205490565b7f000000000000000000000000000000000000000000000000000000000000000081565b6108dc33610894565b6108f85760405162461bcd60e51b815260040161055c90612799565b336000818152603e6020526040808220429055517ff52f50426b32362d3e6bb8cb36b7074756b224622def6352a59eac7f66ebe6e89190a2565b603d6020526000908152604090205481565b60076020526000908152604090205481565b60408051600180825281830190925260009160609190816020015b61097961230f565b8152602001906001900390816109715790505090506040518060600160405280306001600160a01b031681526020016109b185610894565b81526020016109be610539565b815250816000815181106109ce57fe5b602002602001018190525061078d6109e684836116f6565b6001600160a01b0385166000908152603d602052604090205490611214565b7f000000000000000000000000000000000000000000000000000000000000000081565b7f000000000000000000000000000000000000000000000000000000000000000081565b60048054604080516020601f60026000196101006001881615020190951694909404938401819004810282018101909252828152606093909290918301828280156104ff5780601f106104d4576101008083540402835291602001916104ff565b7f000000000000000000000000000000000000000000000000000000000000000081565b6000610ae833610ae133610894565b60006113a0565b905060006000198314610afb5782610afd565b815b9050610b3a816040518060400160405280600e81526020016d1253959053125117d05353d5539560921b8152508461165f9092919063ffffffff16565b336000908152603d6020526040902055610b9f7f00000000000000000000000000000000000000000000000000000000000000006001600160a01b03167f000000000000000000000000000000000000000000000000000000000000000086846117e7565b836001600160a01b0316336001600160a01b03167f9310ccfcb8de723f578a9e4282ea9f521f05ae40dc08f3068dfad528a65ee3c783604051610be29190612822565b60405180910390a350505050565b600061052f610bfd61126e565b84610784856040518060600160405280602581526020016129ea6025913960016000610c2761126e565b6001600160a01b03908116825260208083019390935260409182016000908120918d1681529252902054919061165f565b600061052f610c6561126e565b8484611593565b601281565b80610c8e5760405162461bcd60e51b815260040161055c906126d7565b6000610c9983610894565b90506000610cb0843084610cab610539565b611841565b90508015610d2e577f2468f9268c60ad90e2d49edb0032c8a001e733ae888b3ab8e982edf535be1a768482604051610ce9929190612660565b60405180910390a16001600160a01b0384166000908152603d6020526040902054610d149082611214565b6001600160a01b0385166000908152603d60205260409020555b610d3b600084868561101a565b6001600160a01b0385166000908152603e6020526040902055610d5e8484611900565b610d936001600160a01b037f0000000000000000000000000000000000000000000000000000000000000000163330866117e7565b836001600160a01b0316336001600160a01b03167f5dac0c1b1112564a045ba943c9d50270893e8e826c49be8e7073adc713ab7bd785604051610be29190612822565b336001600160a01b037f00000000000000000000000000000000000000000000000000000000000000001614610e1e5760405162461bcd60e51b815260040161055c90612733565b60005b81811015610f84576000603c6000858585818110610e3b57fe5b9050606002016040016020810190610e539190612421565b6001600160a01b03166001600160a01b031681526020019081526020016000209050610eb8848484818110610e8457fe5b9050606002016040016020810190610e9c9190612421565b82868686818110610ea957fe5b905060600201602001356119f0565b50838383818110610ec557fe5b610edb92602060609092020190810191506125e7565b81546001600160801b0319166001600160801b0391909116178155838383818110610f0257fe5b9050606002016040016020810190610f1a9190612421565b6001600160a01b03167f87fa03892a0556cb6b8f97e6d533a150d4d55fcbf275fff5fa003fa636bcc7fa858585818110610f5057fe5b610f6692602060609092020190810191506125e7565b604051610f7391906127d0565b60405180910390a250600101610e21565b505050565b6008546001600160a01b031681565b7f000000000000000000000000000000000000000000000000000000000000000081565b6001600160a01b03918216600090815260016020908152604080832093909416825291909152205490565b600181565b603c60205260009081526040902080546001909101546001600160801b0380831692600160801b9004169083565b6001600160a01b0382166000908152603e602052604081205480611042576000915050611124565b60006110987f0000000000000000000000000000000000000000000000000000000000000000611092427f000000000000000000000000000000000000000000000000000000000000000061135e565b9061135e565b9050818111156110ab5760009150611105565b60008782116110ba57876110bc565b425b9050828110156110d157829350505050611124565b6111016110de8887611214565b6110fb6110eb8887611aad565b6110f58b86611aad565b90611214565b90611b06565b9250505b506001600160a01b0384166000908152603e6020526040902081905590505b949350505050565b6000611136611b48565b905060095481116111785760405162461bcd60e51b815260040180806020018281038252602e815260200180612928602e913960400191505060405180910390fd5b6009819055604080516020601f88018190048102820181019092528681526111ba918890889081908401838280828437600092019190915250611b4d92505050565b6111f984848080601f016020809104026020016040519081016040528093929190818152602001838380828437600092019190915250611b6492505050565b61120282611b77565b61120b87611b8d565b50505050505050565b60008282018381101561078d576040805162461bcd60e51b815260206004820152601b60248201527f536166654d6174683a206164646974696f6e206f766572666c6f770000000000604482015290519081900360640190fd5b3390565b6001600160a01b0383166112b75760405162461bcd60e51b815260040180806020018281038252602481526020018061299c6024913960400191505060405180910390fd5b6001600160a01b0382166112fc5760405162461bcd60e51b81526004018080602001828103825260228152602001806128976022913960400191505060405180910390fd5b6001600160a01b03808416600081815260016020908152604080832094871680845294825291829020859055815185815291517f8c5be1e5ebec7d5bd14f71427d1e84f3dd0314c0f7b2291e5b200ac8c7c3b9259281900390910190a3505050565b600061078d83836040518060400160405280601e81526020017f536166654d6174683a207375627472616374696f6e206f766572666c6f77000081525061165f565b6000806113b1853086610cab610539565b6001600160a01b0386166000908152603d6020526040812054919250906113d89083611214565b9050811561143c578315611402576001600160a01b0386166000908152603d602052604090208190555b7f2468f9268c60ad90e2d49edb0032c8a001e733ae888b3ab8e982edf535be1a768683604051611433929190612660565b60405180910390a15b95945050505050565b6001600160a01b03821661148a5760405162461bcd60e51b81526004018080602001828103825260218152602001806129566021913960400191505060405180910390fd5b61149682600083611baf565b6114d381604051806060016040528060228152602001612875602291396001600160a01b038516600090815260208190526040902054919061165f565b6001600160a01b0383166000908152602081905260409020556002546114f9908261135e565b6002556040805182815290516000916001600160a01b038516917fddf252ad1be2c89b69c2b068fc378daa952ba7f163c4a11628f55a4df523b3ef9181900360200190a35050565b604080516001600160a01b038416602482015260448082018490528251808303909101815260649091019091526020810180516001600160e01b031663a9059cbb60e01b179052610f84908490611cc5565b600061159e84610894565b90506115ac848260016113a0565b50826001600160a01b0316846001600160a01b03161461164e5760006115d184610894565b90506115df848260016113a0565b506001600160a01b0385166000908152603e60205260409020546116058185878561101a565b6001600160a01b0386166000908152603e6020526040902055828414801561162c57508015155b1561164b576001600160a01b0386166000908152603e60205260408120555b50505b611659848484611e7d565b50505050565b600081848411156116ee5760405162461bcd60e51b81526004018080602001828103825283818151815260200191508051906020019080838360005b838110156116b357818101518382015260200161169b565b50505050905090810190601f1680156116e05780820380516001836020036101000a031916815260200191505b509250505060405180910390fd5b505050900390565b600080805b83518110156117df576000603c600086848151811061171657fe5b602090810291909101810151516001600160a01b03168252810191909152604001600090812060018101548154885192945061177e926001600160801b0380831692600160801b900416908a908890811061176d57fe5b602002602001015160400151611fd8565b90506117d36117cc87858151811061179257fe5b602002602001015160200151838560020160008c6001600160a01b03166001600160a01b03168152602001908152602001600020546120d1565b8590611214565b935050506001016116fb565b509392505050565b604080516001600160a01b0380861660248301528416604482015260648082018490528251808303909101815260849091019091526020810180516001600160e01b03166323b872dd60e01b179052611659908590611cc5565b6001600160a01b038084166000908152603c60209081526040808320938816835260028401909152812054909190828061187c8885886119f0565b90508083146118f4578615611899576118968782856120d1565b91505b6001600160a01b03808a1660008181526002870160205260409081902084905551918a16917fbb123b5c06d5408bbea3c4fef481578175cfb432e3b482c6186f02ed9086585b906118eb908590612822565b60405180910390a35b50979650505050505050565b6001600160a01b03821661195b576040805162461bcd60e51b815260206004820152601f60248201527f45524332303a206d696e7420746f20746865207a65726f206164647265737300604482015290519081900360640190fd5b61196760008383611baf565b6002546119749082611214565b6002556001600160a01b03821660009081526020819052604090205461199a9082611214565b6001600160a01b0383166000818152602081815260408083209490945583518581529351929391927fddf252ad1be2c89b69c2b068fc378daa952ba7f163c4a11628f55a4df523b3ef9281900390910190a35050565b6001820154825460009190600160801b90046001600160801b031642811415611a1b5750905061078d565b8454600090611a369084906001600160801b03168488611fd8565b9050828114611a8a57808660010181905550866001600160a01b03167f5777ca300dfe5bead41006fbce4389794dbc0ed8d6cccebfaf94630aa04184bc82604051611a819190612822565b60405180910390a25b85546001600160801b03428116600160801b029116178655925050509392505050565b600082611abc57506000610533565b82820282848281611ac957fe5b041461078d5760405162461bcd60e51b81526004018080602001828103825260218152602001806128df6021913960400191505060405180910390fd5b600061078d83836040518060400160405280601a81526020017f536166654d6174683a206469766973696f6e206279207a65726f0000000000008152506120f3565b600190565b8051611b60906003906020840190612339565b5050565b8051611b60906004906020840190612339565b6005805460ff191660ff92909216919091179055565b600880546001600160a01b0319166001600160a01b0392909216919091179055565b816001600160a01b0316836001600160a01b03161415611bce57610f84565b6001600160a01b03831615611c00576000611be884610894565b9050611bfe8482611bf9818661135e565b612158565b505b6001600160a01b03821615611c2d576000611c1a83610894565b9050611c2b8382611bf98186611214565b505b6008546001600160a01b0316801561165957806001600160a01b0316634a3931498585856040518463ffffffff1660e01b815260040180846001600160a01b03168152602001836001600160a01b031681526020018281526020019350505050600060405180830381600087803b158015611ca757600080fd5b505af1158015611cbb573d6000803e3d6000fd5b5050505050505050565b611cd7826001600160a01b03166122d6565b611d28576040805162461bcd60e51b815260206004820152601f60248201527f5361666545524332303a2063616c6c20746f206e6f6e2d636f6e747261637400604482015290519081900360640190fd5b60006060836001600160a01b0316836040518082805190602001908083835b60208310611d665780518252601f199092019160209182019101611d47565b6001836020036101000a0380198251168184511680821785525050505050509050019150506000604051808303816000865af19150503d8060008114611dc8576040519150601f19603f3d011682016040523d82523d6000602084013e611dcd565b606091505b509150915081611e24576040805162461bcd60e51b815260206004820181905260248201527f5361666545524332303a206c6f772d6c6576656c2063616c6c206661696c6564604482015290519081900360640190fd5b80511561165957808060200190516020811015611e4057600080fd5b50516116595760405162461bcd60e51b815260040180806020018281038252602a8152602001806129c0602a913960400191505060405180910390fd5b6001600160a01b038316611ec25760405162461bcd60e51b81526004018080602001828103825260258152602001806129776025913960400191505060405180910390fd5b6001600160a01b038216611f075760405162461bcd60e51b81526004018080602001828103825260238152602001806128526023913960400191505060405180910390fd5b611f12838383611baf565b611f4f816040518060600160405280602681526020016128b9602691396001600160a01b038616600090815260208190526040902054919061165f565b6001600160a01b038085166000908152602081905260408082209390935590841681522054611f7e9082611214565b6001600160a01b038084166000818152602081815260409182902094909455805185815290519193928716927fddf252ad1be2c89b69c2b068fc378daa952ba7f163c4a11628f55a4df523b3ef92918290030190a3505050565b6000831580611fe5575081155b80611ff8575042836001600160801b0316145b8061202c57507f0000000000000000000000000000000000000000000000000000000000000000836001600160801b031610155b15612038575083611124565b60007f000000000000000000000000000000000000000000000000000000000000000042116120675742612089565b7f00000000000000000000000000000000000000000000000000000000000000005b905060006120a0826001600160801b03871661135e565b90506120c6876110f5866110fb670de0b6b3a76400006120c08c88611aad565b90611aad565b979650505050505050565b6000611124670de0b6b3a76400006110fb6120ec868661135e565b8790611aad565b600081836121425760405162461bcd60e51b81526020600482018181528351602484015283519092839260449091019190850190808383600083156116b357818101518382015260200161169b565b50600083858161214e57fe5b0495945050505050565b6001600160a01b038316600090815260076020908152604080832054600690925290912043919081158015906121bd57506001600160801b0383168160006121a185600161135e565b81526020810191909152604001600020546001600160801b0316145b1561220157838160006121d185600161135e565b8152602081019190915260400160002080546001600160801b03928316600160801b02921691909117905561227c565b6040805180820182526001600160801b0380861682528681166020808401918252600087815290869052939093209151825493518216600160801b029082166001600160801b03199094169390931716919091179055612262826001611214565b6001600160a01b0387166000908152600760205260409020555b604080516001600160a01b03881681526001600160801b03808816602083015286168183015290517f2cd3c83ddac2953ee75f53265d9ea4463eaf05030e5459a1b7e63819b7ce88f79181900360600190a1505050505050565b6000813f7fc5d2460186f7233c927e7db2dcc703c0e500b653ca82273b7bfad8045d85a470818114801590611124575050151592915050565b604051806060016040528060006001600160a01b0316815260200160008152602001600081525090565b828054600181600116156101000203166002900490600052602060002090601f01602090048101928261236f57600085556123b5565b82601f1061238857805160ff19168380011785556123b5565b828001600101855582156123b5579182015b828111156123b557825182559160200191906001019061239a565b506123c19291506123c5565b5090565b5b808211156123c157600081556001016123c6565b60008083601f8401126123eb578182fd5b50813567ffffffffffffffff811115612402578182fd5b60208301915083602082850101111561241a57600080fd5b9250929050565b600060208284031215612432578081fd5b813561078d81612839565b6000806040838503121561244f578081fd5b823561245a81612839565b9150602083013561246a81612839565b809150509250929050565b600080600060608486031215612489578081fd5b833561249481612839565b925060208401356124a481612839565b929592945050506040919091013590565b600080604083850312156124c7578182fd5b82356124d281612839565b946020939093013593505050565b600080602083850312156124f2578182fd5b823567ffffffffffffffff80821115612509578384fd5b818501915085601f83011261251c578384fd5b81358181111561252a578485fd5b86602060608302850101111561253e578485fd5b60209290920196919550909350505050565b60008060008060008060808789031215612568578182fd5b863561257381612839565b9550602087013567ffffffffffffffff8082111561258f578384fd5b61259b8a838b016123da565b909750955060408901359150808211156125b3578384fd5b506125c089828a016123da565b909450925050606087013560ff811681146125d9578182fd5b809150509295509295509295565b6000602082840312156125f8578081fd5b81356001600160801b038116811461078d578182fd5b60008060008060808587031215612623578384fd5b8435935060208501359250604085013561263c81612839565b9396929550929360600135925050565b6001600160a01b0391909116815260200190565b6001600160a01b03929092168252602082015260400190565b901515815260200190565b6000602080835283518082850152825b818110156126b057858101830151858201604001528201612694565b818111156126c15783604083870101525b50601f01601f1916929092016040019392505050565b6020808252601390820152721253959053125117d6915493d7d05353d55395606a1b604082015260600190565b60208082526015908201527424a729aaa32324a1a4a2a72a2fa1a7a7a62227aba760591b604082015260600190565b60208082526015908201527427a7262cafa2a6a4a9a9a4a7a72fa6a0a720a3a2a960591b604082015260600190565b60208082526017908201527f554e5354414b455f57494e444f575f46494e4953484544000000000000000000604082015260600190565b6020808252601b908201527f494e56414c49445f42414c414e43455f4f4e5f434f4f4c444f574e0000000000604082015260600190565b6001600160801b0391909116815260200190565b6001600160801b0392831681529116602082015260400190565b6001600160801b039384168152919092166020820152604081019190915260600190565b90815260200190565b60ff91909116815260200190565b6001600160a01b038116811461284e57600080fd5b5056fe45524332303a207472616e7366657220746f20746865207a65726f206164647265737345524332303a206275726e20616d6f756e7420657863656564732062616c616e636545524332303a20617070726f766520746f20746865207a65726f206164647265737345524332303a207472616e7366657220616d6f756e7420657863656564732062616c616e6365536166654d6174683a206d756c7469706c69636174696f6e206f766572666c6f7745524332303a207472616e7366657220616d6f756e74206578636565647320616c6c6f77616e6365436f6e747261637420696e7374616e63652068617320616c7265616479206265656e20696e697469616c697a656445524332303a206275726e2066726f6d20746865207a65726f206164647265737345524332303a207472616e736665722066726f6d20746865207a65726f206164647265737345524332303a20617070726f76652066726f6d20746865207a65726f20616464726573735361666545524332303a204552433230206f7065726174696f6e20646964206e6f74207375636365656445524332303a2064656372656173656420616c6c6f77616e63652062656c6f77207a65726fa2646970667358221220e1477eda3ad3dd09cc048706b442ae80f813072ffce857159e9b32b048c7708664736f6c63430007050033",
  "linkReferences": {},
  "deployedLinkReferences": {}
}